:020000040800F2
:1000000098070020B50100082D1A0008AD17000858
:10001000291A0008710200084D1A000800000000AB
:10002000000000000000000000000000351A000879
:100030007502000800000000311A0008391A000893
:10004000CF010008CF010008CF010008CF01000850
:10005000CF010008CF010008CF010008CF01000840
:10006000CF010008CF010008CF010008CF01000830
:10007000CF010008CF010008CF010008CF01000820
:10008000CF010008CF010008CF010008CF01000810
:10009000CF010008CF010008CF010008CF01000800
:1000A000CF010008411A0008CF010008CF01000865
:1000B000CF010008CF010008CF010008CF010008E0
:1000C000CF010008CF010008CF010008CF010008D0
:1000D000CF010008CF010008CF010008CF010008C0
:1000E000CF010008CF010008CF01000800F002F89E
:1000F00000F050F814A696E8000CB244B344DA4578
:1001000001D100F047F8BAE80F000FA696E83000DA
:10011000A5EB040504EB0607AAEB0704A7F101070A
:100120004FEA15154FEA3414A4F10104AC4201D38F
:1001300000F030F813F0010F18BFFB1A43F0010371
:1001400000F001F8DBE71847181A0000381A000021
:10015000103A24BF78C878C1FAD8520724BF30C8F3
:1001600030C144BF04680C60704700007047000055
:100170000023002400250026103A28BF78C1FBD8B0
:10018000520728BF30C148BF0B6070471FB51FBD65
:1001900010B510BD00F031F81146FFF7F7FF01F080
:1001A00057FC00F04FF803B4FFF7F2FF03BC00F078
:1001B00057F800000948804709480047FEE7FEE776
:1001C000FEE7FEE7FEE7FEE7FEE7FEE7FEE7FEE707
:1001D00004480549054A064B704700003D1A0008CF
:1001E000ED000008980100209807002098030020E7
:1001F00098030020704770477047754600F02CF850
:10020000AE4605006946534620F00700854618B003
:1002100020B5FFF7DDFFBDE820404FF000064FF0AE
:1002200000074FF000084FF0000BAC46ACE8C009E7
:10023000ACE8C009ACE8C009ACE8C00921F007018E
:100240008D46704710B50446AFF300802046BDE8E8
:100250001040FFF7A8BF00000048704710000020C2
:1002600001491820ABBEFEE72600020070470000DF
:10027000FEE7000070470000EFF3108072B600BF89
:10028000FEE70000B0B5044600F018F9054640F25C
:100290000000C2F200000078611C18BF044400BFD7
:1002A00000F00CF9401BA042FAD3B0BD2DE9F04F8D
:1002B00082B00E68002E00F0FD8041F20042C4F2D0
:1002C0000102042340F2004E904208BF03234FF680
:1002D000FF7CC4F2010E009300240123C1F2100C34
:1002E0004FF0000A4FF0000944E000BF012704F07E
:1002F0000C030F229A402BEA020207FA03F34FEA9B
:100300009A051A4346F825204E6840F20C45F20241
:10031000DEF8082054BF22EA080242EA0802C4F2CA
:100320000105CEF808202A68B30254BF22EA080269
:1003300042EA08022A60B303DEF8042054BF22EA2E
:10034000080242EA0802F303CEF80420DEF8002097
:100350004FF0010354BF22EA080242EA0802CEF835
:1003600000200E680AF1010A36FA0AF204F10404C8
:1003700000F0A08003FA0AFB16EA0B08F1D04E68E1
:10038000664511DC122E55D8DFE806F0340A4448E1
:10039000545454545454545454545454544C50007D
:1003A000D1F80C9046E000BF4FF6FF72C1F2210277
:1003B00096420FDC0022C1F2110296421AD00022AE
:1003C000C1F21202964215D00022C1F221029642D9
:1003D00010D02FE00022C1F2220296420AD0002261
:1003E000C1F23102964205D00022C1F23202964299
:1003F00020D100BF8A684AB1012A14BFC0F814B0E6
:10040000C0F810B04FF0080914E000BF4FF0040925
:1004100010E000BFCA6802F108090BE04FF00009C4
:1004200008E000BFCA6802F1040903E0CA6802F1EB
:100430000C0900BF22460646B8F5807F24BF203A4B
:10044000043637680F25954027EA050509FA02F2B8
:100450002A433260CA79D2067FF583AF41F218038E
:10046000C4F202031A68AEF57E7642F001021A6009
:100470001A6802F001020192019A2AF0030256F86A
:1004800002B040F60002C4F20102904210D040F6E1
:100490000042C4F2010290423FF428AF41F2000250
:1004A000C4F20102009F904208BF02271FE700BF6D
:1004B00000271CE702B0BDE8F08F000040F2941066
:1004C000C2F200000068704740F2000040F2941150
:1004D000C2F20000C2F2000100780A68104408600D
:1004E0007047000080B542F20000C4F202000168CB
:1004F00041F010010160032000F08CF80F2000F0A3
:1005000005F800F027F8002080BD000070B540F22B
:100510000006C2F2000640F208013278C2F2000181
:100520004FF47A730968B3FBF2F20446B1FBF2F1BF
:10053000084600F089FB0F2C4FF0010508D838B9A8
:100540004FF0FF3021460022002500F037F874609C
:10055000284670BD82B041F21800C4F20200016862
:10056000022241F001010160016801F001010191E5
:100570000199416841F080514160406800F080502D
:10058000009000980420C4F20100016862F31A612F
:10059000016002B070470000002848BF704700F0BB
:1005A0001F01012202FA01F11C2202EAD0004EF2E0
:1005B0000012CEF2000281507047000010B54EF6D6
:1005C0000C5CCEF2000CDCF80030C3F3022E8EF08F
:1005D0000704042C28BF0424BEF103034FF0FF3EA0
:1005E0000EFA04F438BF0023A14399400EFA03F336
:1005F0009A43114300F00F0200F160430901043AED
:1006000003F564436244002848BF02F10C031970EB
:1006100010BD00004EF60C51CEF200010A684FF6F4
:10062000FF031A4060F30A2242F0806040F0FD7040
:1006300008607047002804BF012070472DE9F0438F
:1006400081B042F20008C4F202080446D8F8000063
:100650000D4600F0070088420CD2D8F8000020F0C8
:1006600007002843C8F80000D8F8000000F0070091
:10067000A8426CD1206841F204098107C4F2020942
:1006800017D5410705D5D9F8001041F4E061C9F844
:100690000010010705D5D9F8001041F46051C9F8E0
:1006A0000010D9F80010A26821F0F0011143C9F838
:1006B0000010C00742D1D8F8000000F00700A8429F
:1006C0000CD9D8F8000020F007002843C8F8000033
:1006D000D8F8000000F00700A84238D12068410790
:1006E00007D5D9F80010E26821F4E0611143C9F898
:1006F0000010000708D5D9F80000216920F46050E7
:1007000040EAC100C9F80000D9F8002002F00C004E
:10071000082841F20020C0F27A0051D141F650334E
:10072000C2F38341C0F60003595CD2033CD440F6C7
:100730000010C0F23D00484342E000BF606802285C
:100740000AD001282AD159F8041C890308D40120B1
:1007500001B0BDE8F08300BF59F8041C8901F6D54B
:10076000D9F8001021F003010843C9F80000FFF791
:10077000A5FE064641F28837D9F80000616800F00E
:100780000C00B0EB810F96D0FFF798FE801BB842AB
:10079000F2D9032001B0BDE8F08300BF59F8041C72
:1007A0008907D4D5DCE700BFD9F8002041F64E33E5
:1007B000C2F34042C0F600039A5C4843B0FBF2F03B
:1007C000D9F8001041F63632C1F30311C0F6000229
:1007D000515C40F2080220FA01F140F20400C2F23A
:1007E00000000068C2F200021160FFF78FFE0020D7
:1007F00001B0BDE8F083000040F2080041F20401BE
:10080000C2F20000C4F202010068096841F64632F3
:10081000C1F30221C0F60002515CC84070470000DD
:1008200040F2080041F20401C2F20000C4F20201E9
:100830000068096841F64632C1F3C221C0F60002E1
:10084000515CC84070470000002804BF0120704779
:100850002DE9F04182B00446007841F20006C0075D
:10086000C4F202060CD0706800F00C00042840F0BE
:1008700081803068800303D56068002800F04E81D5
:10088000207880071BD5706810F00C0F09D07068B5
:1008900000F00C00082840F08B807068C00300F165
:1008A00087803068800703D52069012840F03681B1
:1008B0003068616920F0F80040EAC10030602078BB
:1008C000000713D4207840072CD4E569002D00F0F0
:1008D0002081706800F00C00082840F0AF80012DE6
:1008E00040F00C81012002B0BDE8F081A069002831
:1008F00000F08C800020C4F242200121C0F8801456
:10090000FFF7DCFD054600BF706A800700F1BA8082
:10091000FFF7D4FD401B0228F6D9032002B0BDE842
:10092000F08100BFF0695FEAC00808D4F06940F0C8
:100930008050F061F06900F080500090009847F21C
:100940000007C4F200073868C0054DD4386840F489
:1009500080703860FFF7B2FD054600BF3868C005FB
:1009600042D4FFF7ABFD401B6428F7D9032002B047
:10097000BDE8F081706800F00C00082803D17068B1
:10098000C0033FF576AF6068002800F00981B0F53C
:10099000A02F00F01D81B0F5803F00F01D81306870
:1009A00020F480303060306820F4802017E100BFF0
:1009B0002069002840F20000C4F2422000F08C8040
:1009C00001210160FFF77AFD054600BF306880070E
:1009D0003FF56EAFFFF772FD401B0228F6D90320EA
:1009E00002B0BDE8F08100BFE068002800F09A8006
:1009F000052800F0B180012800F0B280306A20F0B4
:100A000001003062306A20F00400ACE00020C4F243
:100A100042200021C0F88014FFF750FD054600BFBA
:100A2000706A80077FF54EAFFFF748FD401B022834
:100A3000F6D9032002B0BDE8F08100BF0027C4F260
:100A4000422700203866FFF739FD022D05460DD1FB
:100A50003068800140F1D680FFF730FD401B02284E
:100A60004FF00300F4D902B0BDE8F0813068800196
:100A70004FD5FFF723FD401B02284FF00300F5D9A7
:100A8000F1E700BF40F20800C2F20000006844F63F
:100A9000D351C1F26201A0FB0101480A019000BFDD
:100AA00000BF0198411E002801913FF40BAF00BF29
:100AB0000198411E002801913FF404AF00BF019846
:100AC000411E002801913FF4FDAE00BF0198411E78
:100AD00000280191E4D1F5E600210160FFF7EEFC6A
:100AE000054600BF306880077FF5E9AEFFF7E6FCFA
:100AF000401B02284FF00300F4D9B4E77068216A64
:100B000000F480328A4209D1616A00F47010884290
:100B100004D1002002B0BDE8F08100BF012002B086
:100B2000BDE8F081306A20F001003062306A20F0C8
:100B300004003062FFF7C2FC054641F2883700BF6F
:100B4000306A800722D5FFF7B9FC401BB8424FF04E
:100B50000300F5D987E700BF306A40F00400306237
:100B6000306A40F001003062FFF7A8FC054641F210
:100B7000883700BF306A800708D4FFF79FFC401B0E
:100B8000B842F7D9032002B0BDE8F081B8F1000FF8
:100B90003FF59BAEF06920F08050F06195E600BF14
:100BA000306820F480303060306820F4802030607D
:100BB000FFF784FC054600BF306880037FF560AE18
:100BC000FFF77CFC401B64284FF00300F4D94AE790
:100BD000306840F480203060306840F4803030600D
:100BE000FFF76CFC054600BF306880033FF548AE58
:100BF000FFF764FC401B6428F6D9032002B0BDE86F
:100C0000F08100BF206AB0F5803F05D17168A2680D
:100C100021F40031114371607168626A21F474112A
:100C200011430843706001203866FFF747FC044613
:100C3000306880013FF56DAFFFF740FC001B0228D4
:100C40004FF00300F4D90EE7411E0020B0EB116F06
:100C50001CBF012070474EF21002CEF2000251601C
:100C60004EF62351CEF20001F0230B700721906065
:100C700011607047704700007047000090F83C20FA
:100C8000012A4FF0020236D010B580F83D200268EC
:100C9000D2F804E0D2F808C00C682EF070032343A9
:100CA00040F2FF74C4F20004A24253600ADCB2F1C5
:100CB000804F13D040F20043C4F200039A420DD09B
:100CC00011E000BF42F60043C4F201039A4205D08E
:100CD00040F60003C4F200039A4204D149682CF0A4
:100CE0008003194391600121002280F83D1080F8B3
:100CF0003C20BDE81040104670470000002804BFAB
:100D00000120704710B5044690F83D0028B9002036
:100D100084F83C00204600F06FF8022084F83D0083
:100D2000206840F2FF730268C4F2000342F6004CF0
:100D30009842C4F2010C15DCB0F1804F1AD040F299
:100D40000041C4F20001884214D0984218DCB0F18E
:100D5000804F1DD040F20041C4F20001884217D0FC
:100D60001AE000BF604505D040F60001C4F2000162
:100D70008842EAD1A16822F070020A439842E6DD77
:100D8000604505D040F60001C4F20001884203D15D
:100D9000216922F440720A43A36922F08001D4F849
:100DA00004E0E268194360450160C262C0F828E0CF
:100DB00002D16169CCF83010012141610269D2078A
:100DC00003D0026922F001020261002084F846107B
:100DD00084F83E1084F83F1084F8401084F84110E5
:100DE00084F8421084F8431084F8441084F84510C5
:100DF00084F83D1010BD000080B584B00068B0F1EB
:100E0000804F27D040F20041C4F20001884231D027
:100E100042F60041C4F20101884238D141F21C007F
:100E2000C4F2020050F8041C002241F4006140F8B2
:100E3000041C50F8040C002100F400600390039897
:100E40001920FFF7BBFB192004B0BDE88040FFF775
:100E5000A3BB00BF41F21C00C4F20200016841F0D4
:100E600001010160006800F001000290029804B0E6
:100E700080BD00BF41F21C00C4F20200016841F0D5
:100E800002010160006800F002000190019804B0C6
:100E900080BD000090F83D1001291CBF0120704763
:100EA000022180F83D10006840F2FF71C4F2000199
:100EB000884209DCB0F1804F12D040F20041C4F208
:100EC000000188420CD012E042F60041C4F2010158
:100ED000884205D040F60001C4F20001884206D1E4
:100EE000816801F00701062904BF002070470168EE
:100EF00041F00101016000207047000090F83D10B2
:100F000001291CBF01207047022180F83D100068B4
:100F100040F2FF72C168C4F20002904241F0010148
:100F2000C16009DCB0F1804F12D040F20041C4F240
:100F3000000188420CD012E042F60041C4F20101E7
:100F4000884205D040F60001C4F20001884206D173
:100F5000816801F00701062904BF0020704701687D
:100F600041F00101016000207047000090F83C2032
:100F7000012A4FF0020200F0C58080B580F83D20C4
:100F8000D0F800C04FF67772DCF8083023EA02028E
:100F9000CCF808200B684F2B28DC1F2B44DD202BBE
:100FA00045D0302B43D0402B40F0AE80D1F804E048
:100FB000C968DCF82030DCF8202022F00102CCF8EF
:100FC0002020DCF8182022F0F00242EA011123F080
:100FD0000A0242EA0E02CCF81810CCF82020DCF805
:100FE000081041F0470121F0300180E06F2B27DD30
:100FF000B3F5005F48D0B3F5805F7AD0702B40F036
:101000008380D1E901E3C968DCF8082043EA0E03D4
:1010100022F47F4243EA01211143CCF80810DCF8A6
:10102000081041F0770162E00BB1102B6CD1DCF8B5
:10103000081021F07001194341F0070157E000BF8B
:10104000502B35D0602B5FD1D1F804E0C968DCF8B3
:101050002030DCF8202022F01002CCF82020DCF830
:10106000182022F4704242EA013123F0A00242EA41
:101070000E12CCF81810CCF82020DCF8081041F043
:10108000670121F0100132E0D1E901E3C968DCF821
:10109000082043EA0E0322F47F4243EA0121114370
:1010A000CCF80810DCF8081041F480411FE000BFC4
:1010B000D1F804E0C968DCF82030DCF8202022F008
:1010C0000102CCF82020DCF8182022F0F00242EADD
:1010D000011123F00A0242EA0E02CCF81810CCF8F3
:1010E0002020DCF8081041F0570121F02001CCF855
:1010F00008100022012180F83D10002180F83C10EA
:10110000BDE88040104670470122F3E770470000B9
:1011100070B504460068C5680669B10716D515F0B4
:10112000020113D06FF00201016101212177806972
:10113000800703D02046FFF7E9FF05E0204600F0D6
:101140008FF8204600F00EFA00202077700719D59E
:1011500015F0040016D020686FF00401016102212F
:101160002177806910F4407F04D02046FFF7CEFF3E
:1011700006E000BF204600F073F8204600F0F2F9C8
:1011800000202077300717D515F0080014D020680C
:101190006FF00801016104212177C069800703D045
:1011A0002046FFF7B3FF05E0204600F059F820463F
:1011B00000F0D8F900202077F00619D515F01000BE
:1011C00016D020686FF01001016108212177C069F5
:1011D00010F4407F04D02046FFF798FF06E000BFE0
:1011E000204600F03DF8204600F0BCF900202077B2
:1011F000F00718BF15F0010002D1300609D412E043
:1012000020686FF001010161204600F01BFA3006F2
:1012100009D515F0800006D020686FF080010161CB
:101220002046FFF727FD700609D515F0400006D0CF
:1012300020686FF040010161204600F005FAB00619
:1012400058BF70BD15F0200008D021686FF0200253
:1012500020460A61BDE87040FFF70EBD70BD00007A
:101260007047000090F83C30012B04BF022070470B
:101270004FEAB202032A3DD82DE9F043DFE802F03D
:1012800002407CB6036842F600461D6A1A6AC4F240
:10129000010622F001021A621A465C6852F818CF61
:1012A000B3428E68D1F800E025F0020545EA060554
:1012B0000CD1CE68D1E9057824F4407425F00C05F2
:1012C00026F004063C43354344EA08042CF0730737
:1012D00047EA0E075C609F614F6809695F631D62A2
:1012E0009F6947F008079F619F6927F004079F6186
:1012F000ACE000BF0121002280F83C200846704786
:10130000036842F600461D6A1A6AC4F2010622F01A
:1013100010021A621A46D3F804C052F8184FB342AA
:101320008E68D1F800E025F0200545EA06150FD1BA
:10133000CE68D1E905986FF0400725F0C00507EAAF
:10134000061635432CF4406748EA090647EA860C3E
:1013500024F4E64444EA0E27C3F804C09F614F68B2
:1013600009699F631D629F6947F400679F619F69D8
:1013700027F480679F6168E0036842F600461D6AB3
:101380001A6AC4F2010622F480721A621A46D3F86D
:1013900004C052F81CEFB3428E680C6825F4007547
:1013A00045EA06250FD1CE68D1E90598360240F20C
:1013B000FF4725F44065BE4335432CF4405748EAC7
:1013C000090647EA061C2EF073072743C3F804C03A
:1013D000DF614F680969DF631D62DF6947F0080755
:1013E000DF61DF6927F00407DF612FE0036842F661
:1013F0000047D3F820C01A6AC4F2010722F48052D1
:101400001A621A465C6852F81C5FD1F800E08E68D8
:10141000BB4204D14F6924F4804444EA87142CF47D
:10142000005747EA063725F4E64646EA0E265C6092
:10143000DE614E6809691E641F62DF6947F4006758
:10144000DF61DF6927F48067DF61090213681943F0
:1014500011600021BDE8F043002280F83C200846DE
:1014600070470000002804BF0120704710B50446F3
:1014700090F83D0028B9002084F83C00204600F098
:101480006FF8022084F83D00206840F2FF73026884
:10149000C4F2000342F6004C9842C4F2010C15DC81
:1014A000B0F1804F1AD040F20041C4F200018842EE
:1014B00014D0984218DCB0F1804F1DD040F20041AA
:1014C000C4F20001884217D01AE000BF604505D081
:1014D00040F60001C4F200018842EAD1A16822F07E
:1014E00070020A439842E6DD604505D040F60001EF
:1014F000C4F20001884203D1216922F440720A43F8
:10150000A36922F08001D4F804E0E2681943604541
:101510000160C262C0F828E002D16169CCF83010E5
:10152000012141610269D20703D0026922F0010260
:101530000261002084F8461084F83E1084F83F10C1
:1015400084F8401084F8411084F8421084F8431065
:1015500084F8441084F8451084F83D1010BD000054
:10156000704700007047000041B1082910D00429DD
:1015700014BF00F1410200F13F020BE090F83E2061
:10158000012A1CBF01207047022280F83E2013E090
:1015900000F140021278012A1CBF0120704702228C
:1015A000082907D0042914BF80F8412080F83F2083
:1015B00002E000BF80F84020006801F01F01012216
:1015C000036A8A4023EA02010162036A42F6444147
:1015D000C4F201011A43A1F14403984202620FD000
:1015E00040F2FF71C4F20001884213DCB0F1804F79
:1015F0001CD040F20041C4F20001884216D01AE02B
:101600000A6842F400420A6040F2FF71C4F200012D
:101610008842EBDD42F60041C4F20101884205D068
:1016200040F60001C4F20001884204D1816801F053
:101630000701062903D0016841F001010160002083
:10164000704700007047000070470000002804BF8A
:101650000120704710B5044690F8410028B90020D9
:1016600084F84000204600F063F8242084F841000C
:101670002068D4E90212C36823F40053C3600369ED
:1016800023F440531A430261D4E904231143C2688E
:10169000194341F20C639A431143C1604169A26945
:1016A00021F44071114343F60002C4F2010290425A
:1016B000416103D0FFF7A0F802E000BFFFF7B0F8E8
:1016C000D4E90023192148439900B0FBF1F048F216
:1016D0001F5CC5F2EB1CA0FB0C314FF69C73490953
:1016E000C0F6FF7301FB0300322303EB0010A0FBE5
:1016F0000C03F02000EA531000EB0110C3F3431178
:10170000084490601069202120F4904010615069D5
:1017100020F02A005061D06840F40050D0600020D2
:10172000606484F8411084F84210606310BD0000CA
:1017300070B586B040F60004C4F20104006804F5F8
:10174000405100268842049602D006B070BD00BF0A
:1017500041F21800C4F20200016802AD41F4804178
:101760000160016801F4804101910199016841F033
:10177000040101600068294600F00400019001980E
:101780004FF4007002900220039003200590204641
:10179000FEF78CFD4FF48060CDE902062046294615
:1017A0000496FEF783FD06B070BD0000FEE7000062
:1017B00080B586B00020059041F21800C4F2020006
:1017C000016841F020010160016801F020010191F0
:1017D0000199016841F0040101600068002100F0F6
:1017E0000400019001980220C1F211010290CDE99C
:1017F000031040F60000C4F2010002A9FEF756FDF6
:1018000006B080BD80B586B040F2740042F600425A
:101810000021C2F20000C4F20102472340F2E73C7B
:101820004FF0010E0591CDE90311CDE90011C0E99A
:101830000023C0E9021CC0E9041E8161FFF75EFAC3
:10184000002818BFFEF718FD4FF48050029040F2B8
:101850007400C2F2000002A9FFF788FB002818BF3D
:10186000FEF70AFD40F27400C2F200006946FFF77D
:1018700005FA002818BFFEF7FFFC06B080BD000087
:1018800080B586B040F2BC000021C2F200004FF0EB
:10189000804247234FF6FF7C0591CDE90311CDE946
:1018A0000011C0E90023C0E9021C01618161FFF75A
:1018B00025FA002818BFFEF7DFFC4FF48050029095
:1018C00040F2BC00C2F2000002A9FFF74FFB002863
:1018D00018BFFEF7D1FC40F2BC00C2F2000069461E
:1018E000FFF7CCF9002818BFFEF7C6FC06B080BD94
:1018F000B0B594B040F2004540F20410C4F20005C7
:101900000021C2F2000063220E91CDE90C11099171
:10191000CDE90711CDE90511CDE90311CDE901119B
:10192000C0E90051C0E9021201618161FFF7E6F9E7
:10193000002818BFFEF7A0FC4FF480500B9040F237
:101940000410C2F200000BA9FFF710FB002818BF1B
:10195000FEF792FC40F20410C2F20000FFF782FD95
:10196000002818BFFEF788FC40F204100024C2F2E1
:10197000000008A9CDE90844FFF780F9002818BF46
:10198000FEF77AFC6020CDE901040394059440F24F
:101990000414C2F2000401A920460022FFF762FCF1
:1019A000002818BFFEF768FC20680021A8421291A9
:1019B00002D014B0B0BD00BF41F21800C4F2020062
:1019C000016841F004010160006810A900F0040002
:1019D0000F900F984020109002201190139005F561
:1019E0008230FEF763FC14B0B0BD000080B540F259
:1019F0004C1043F60001C2F20000C4F201010023C2
:101A00004FF00C0C4FF4E13280E80E00C0E90333D4
:101A1000C0E905C3C361FFF719FE002808BF80BDF8
:101A2000BDE88040FEF728BCFEE70000FEE70000AE
:101A30007047000070470000FEF746BD7047000089
:101A400040F27400C2F20000FFF762BBFEE7000044
:101A500090B0FEF747FD00240120CDE90B44CDE90D
:101A6000094406900A904FF4E0104FF480310225AB
:101A70000F9006A8CDE90714CDE90D51FEF7E4FE5D
:101A800020B1EFF3108072B6FEE700BF0F20CDE962
:101A900001054FF48060CDE9040401A802210394FC
:101AA000FEF7C8FD20B1EFF3108072B6FEE700BF6D
:101AB000FFF77EFEFFF79AFFFFF7A4FEFFF7E0FEB9
:101AC000FFF716FF40F27400C2F20000FFF716FAAB
:101AD00040F2BC00C2F20000FFF7DCF940F204144F
:101AE000C2F200042046FFF7D5F920460021002568
:101AF000FFF73AFD40F27006C2F200060020358082
:101B0000216800B248630A20FEF7BCFB3088411C04
:101B100008B264283180F3DB63203080216880B212
:101B200048630A20FEF7AEFB3088411E08B2002849
:101B30003180F3DCE2E70000000000000000010259
:101B40000304060708090000000001020304010263
:101B500002030405060708090A0B0C0D0E0F1010EE
:101B6000801B000800000020100000005001000849
:101B7000901B00081000002088070000700100087A
:101B8000010000001000000000127A0000000000B8
:04000005080000ED02
:00000001FF
